{
  "transactions": [
    {
      "hash": "0x83e6dcd4f09b5b1233ef08d8db20367d75b7aa7dd75317cbc86940c55d5b9d6b",
      "transactionType": "CALL",
      "contractName": null,
      "contractAddress": "0x30e9b6b0d161cbd5ff8cf904ff4fa43ce66ac346",
      "function": "approve(address,uint256)",
      "arguments": [
        "0x7aF0B379525D80691D9176896da00390cC51F7A6",
        "115792089237316195423570985008687907853269984665640564039457584007913129639935"
      ],
      "transaction": {
        "from": "0xc35fc43ae078961bfc34ffb6c2148571b6f87920",
        "to": "0x30e9b6b0d161cbd5ff8cf904ff4fa43ce66ac346",
        "gas": "0xfb40",
        "value": "0x0",
        "input": "0x095ea7b30000000000000000000000007af0b379525d80691d9176896da00390cc51f7a6ffffffffffffffffffffffffffffffffffffffffffffffffffffffffffffffff",
        "nonce": "0x157",
        "chainId": "0xaa36a7"
      },
      "additionalContracts": [],
      "isFixedGasLimit": false
    },
    {
      "hash": "0xa6944da52cdaa2fd1a242365f98c4eef5157ef2d2fd57ffdfbc205a0d3c2b723",
      "transactionType": "CALL",
      "contractName": null,
      "contractAddress": "0x7af0b379525d80691d9176896da00390cc51f7a6",
      "function": "open((uint32,bytes32,bytes))",
      "arguments": [
        "(1742804832, 0x08d75650babf4de09c9273d48ef647876057ed91d4323f8a2e3ebc2cd8a63b5e, 0x0000000000000000000000000000000000000000000000000000000000000020000000000000000000000000c35fc43ae078961bfc34ffb6c2148571b6f87920000000000000000000000000c35fc43ae078961bfc34ffb6c2148571b6f8792000000000000000000000000030e9b6b0d161cbd5ff8cf904ff4fa43ce66ac346000000000000000000000000b6e3f86a5ce9ac318f54c9c7bcd6eff368df0296000000000000000000000000000000000000000000000000016345785d8a0000000000000000000000000000000000000000000000000000016345785d8a000000000000000000000000000000000000000000000000000000000000000011ec0000000000000000000000000000000000000000000000000000000000aa36a7000000000000000000000000000000000000000000000000000000000004931000000000000000000000000066e1e28a6e6bd3a4c30a53c964e65ada11cf9eb80000000000000000000000000000000000000000000000000000000067e1176000000000000000000000000000000000000000000000000000000000000001800000000000000000000000000000000000000000000000000000000000000000)"
      ],
      "transaction": {
        "from": "0xc35fc43ae078961bfc34ffb6c2148571b6f87920",
        "to": "0x7af0b379525d80691d9176896da00390cc51f7a6",
        "gas": "0xdef7f",
        "value": "0xf4240",
        "input": "0xe917a96200000000000000000000000000000000000000000000000000000000000000200000000000000000000000000000000000000000000000000000000067e1176008d75650babf4de09c9273d48ef647876057ed91d4323f8a2e3ebc2cd8a63b5e000000000000000000000000000000000000000000000000000000000000006000000000000000000000000000000000000000000000000000000000000001c00000000000000000000000000000000000000000000000000000000000000020000000000000000000000000c35fc43ae078961bfc34ffb6c2148571b6f87920000000000000000000000000c35fc43ae078961bfc34ffb6c2148571b6f8792000000000000000000000000030e9b6b0d161cbd5ff8cf904ff4fa43ce66ac346000000000000000000000000b6e3f86a5ce9ac318f54c9c7bcd6eff368df0296000000000000000000000000000000000000000000000000016345785d8a0000000000000000000000000000000000000000000000000000016345785d8a000000000000000000000000000000000000000000000000000000000000000011ec0000000000000000000000000000000000000000000000000000000000aa36a7000000000000000000000000000000000000000000000000000000000004931000000000000000000000000066e1e28a6e6bd3a4c30a53c964e65ada11cf9eb80000000000000000000000000000000000000000000000000000000067e1176000000000000000000000000000000000000000000000000000000000000001800000000000000000000000000000000000000000000000000000000000000000",
        "nonce": "0x158",
        "chainId": "0xaa36a7"
      },
      "additionalContracts": [],
      "isFixedGasLimit": false
    }
  ],
  "receipts": [
    {
      "status": "0x1",
      "cumulativeGasUsed": "0x19850ae",
      "logs": [
        {
          "address": "0x30e9b6b0d161cbd5ff8cf904ff4fa43ce66ac346",
          "topics": [
            "0x8c5be1e5ebec7d5bd14f71427d1e84f3dd0314c0f7b2291e5b200ac8c7c3b925",
            "0x000000000000000000000000c35fc43ae078961bfc34ffb6c2148571b6f87920",
            "0x0000000000000000000000007af0b379525d80691d9176896da00390cc51f7a6"
          ],
          "data": "0xffffffffffffffffffffffffffffffffffffffffffffffffffffffffffffffff",
          "blockHash": "0x7a4ce93b8921fb986b016c0919c6c44832aa9d10b467a6ac413fdab840b4b9f1",
          "blockNumber": "0x797fe3",
          "blockTimestamp": "0x67dfc5ec",
          "transactionHash": "0x83e6dcd4f09b5b1233ef08d8db20367d75b7aa7dd75317cbc86940c55d5b9d6b",
          "transactionIndex": "0x80",
          "logIndex": "0xb2",
          "removed": false
        }
      ],
      "logsBloom": "0x00000000000000000000000000000000000000000000000000000000000000000000000000000000000000000000000000000000000000000000000000200000000000000000000000000000000000000000000000000000000000000000000000000000000000000000000000000000000000000000000010000000000000000000000000000000000000000000000000000000000000000000000000000000020000000000000000000000000000000000000000000000000000000000000000000000000000000000000000000000000000000000000100000000000000001010010000000000000000000020200000080000000000000001000000000000",
      "type": "0x2",
      "transactionHash": "0x83e6dcd4f09b5b1233ef08d8db20367d75b7aa7dd75317cbc86940c55d5b9d6b",
      "transactionIndex": "0x80",
      "blockHash": "0x7a4ce93b8921fb986b016c0919c6c44832aa9d10b467a6ac413fdab840b4b9f1",
      "blockNumber": "0x797fe3",
      "gasUsed": "0xb5e7",
      "effectiveGasPrice": "0x40524c",
      "from": "0xc35fc43ae078961bfc34ffb6c2148571b6f87920",
      "to": "0x30e9b6b0d161cbd5ff8cf904ff4fa43ce66ac346",
      "contractAddress": null
    },
    {
      "status": "0x1",
      "cumulativeGasUsed": "0x1a2677d",
      "logs": [
        {
          "address": "0x30e9b6b0d161cbd5ff8cf904ff4fa43ce66ac346",
          "topics": [
            "0x8c5be1e5ebec7d5bd14f71427d1e84f3dd0314c0f7b2291e5b200ac8c7c3b925",
            "0x0000000000000000000000007af0b379525d80691d9176896da00390cc51f7a6",
            "0x000000000000000000000000081eca2c5143e499d231997dfd019216a17586ea"
          ],
          "data": "0x000000000000000000000000000000000000000000000000016345785d8a0000",
          "blockHash": "0x7a4ce93b8921fb986b016c0919c6c44832aa9d10b467a6ac413fdab840b4b9f1",
          "blockNumber": "0x797fe3",
          "blockTimestamp": "0x67dfc5ec",
          "transactionHash": "0xa6944da52cdaa2fd1a242365f98c4eef5157ef2d2fd57ffdfbc205a0d3c2b723",
          "transactionIndex": "0x81",
          "logIndex": "0xb3",
          "removed": false
        },
        {
          "address": "0x30e9b6b0d161cbd5ff8cf904ff4fa43ce66ac346",
          "topics": [
            "0xddf252ad1be2c89b69c2b068fc378daa952ba7f163c4a11628f55a4df523b3ef",
            "0x000000000000000000000000c35fc43ae078961bfc34ffb6c2148571b6f87920",
            "0x0000000000000000000000007af0b379525d80691d9176896da00390cc51f7a6"
          ],
          "data": "0x000000000000000000000000000000000000000000000000016345785d8a0000",
          "blockHash": "0x7a4ce93b8921fb986b016c0919c6c44832aa9d10b467a6ac413fdab840b4b9f1",
          "blockNumber": "0x797fe3",
          "blockTimestamp": "0x67dfc5ec",
          "transactionHash": "0xa6944da52cdaa2fd1a242365f98c4eef5157ef2d2fd57ffdfbc205a0d3c2b723",
          "transactionIndex": "0x81",
          "logIndex": "0xb4",
          "removed": false
        },
        {
          "address": "0x30e9b6b0d161cbd5ff8cf904ff4fa43ce66ac346",
          "topics": [
            "0x8c5be1e5ebec7d5bd14f71427d1e84f3dd0314c0f7b2291e5b200ac8c7c3b925",
            "0x0000000000000000000000007af0b379525d80691d9176896da00390cc51f7a6",
            "0x000000000000000000000000081eca2c5143e499d231997dfd019216a17586ea"
          ],
          "data": "0x0000000000000000000000000000000000000000000000000000000000000000",
          "blockHash": "0x7a4ce93b8921fb986b016c0919c6c44832aa9d10b467a6ac413fdab840b4b9f1",
          "blockNumber": "0x797fe3",
          "blockTimestamp": "0x67dfc5ec",
          "transactionHash": "0xa6944da52cdaa2fd1a242365f98c4eef5157ef2d2fd57ffdfbc205a0d3c2b723",
          "transactionIndex": "0x81",
          "logIndex": "0xb5",
          "removed": false
        },
        {
          "address": "0x30e9b6b0d161cbd5ff8cf904ff4fa43ce66ac346",
          "topics": [
            "0xddf252ad1be2c89b69c2b068fc378daa952ba7f163c4a11628f55a4df523b3ef",
            "0x0000000000000000000000007af0b379525d80691d9176896da00390cc51f7a6",
            "0x000000000000000000000000081eca2c5143e499d231997dfd019216a17586ea"
          ],
          "data": "0x000000000000000000000000000000000000000000000000016345785d8a0000",
          "blockHash": "0x7a4ce93b8921fb986b016c0919c6c44832aa9d10b467a6ac413fdab840b4b9f1",
          "blockNumber": "0x797fe3",
          "blockTimestamp": "0x67dfc5ec",
          "transactionHash": "0xa6944da52cdaa2fd1a242365f98c4eef5157ef2d2fd57ffdfbc205a0d3c2b723",
          "transactionIndex": "0x81",
          "logIndex": "0xb6",
          "removed": false
        },
        {
          "address": "0xf8441821ef3982f1314dd242d668264dc4783434",
          "topics": [
            "0x69cfcb8e6d4192b8aba9902243912587f37e550d75c1fa801491fce26717f37e",
            "0x000000000000000000000000c0f05cb097d6fb2eb8b1ffbab180e667458e2a05",
            "0x000000000000000000000000627b3692969b7330b8faed2a8836a41eb4ac1918"
          ],
          "data": "0x0000000000000000000000000000000000000000000000000000000000000000000000000000000000000000000000000000000000000000000000000000006600000000000000000000000000000000000000000000000000000000000f4240000000000000000000000000000000000000000000000000000000000000008000000000000000000000000000000000000000000000000000000000000002a48ef1332e000000000000000000000000081eca2c5143e499d231997dfd019216a17586ea000000000000000000000000a7448df61f9d387f1f3b8d1f3464d5b17e740b030000000000000000000000000000000000000000000000000000000000000000000000000000000000000000000000000000000000000000000000000000006600000000000000000000000000000000000000000000000000000000000000a000000000000000000000000000000000000000000000000000000000000001c48431f5c100000000000000000000000030e9b6b0d161cbd5ff8cf904ff4fa43ce66ac346000000000000000000000000b6e3f86a5ce9ac318f54c9c7bcd6eff368df02960000000000000000000000007af0b379525d80691d9176896da00390cc51f7a600000000000000000000000066e1e28a6e6bd3a4c30a53c964e65ada11cf9eb8000000000000000000000000000000000000000000000000016345785d8a000000000000000000000000000000000000000000000000000000000000000000c000000000000000000000000000000000000000000000000000000000000000e000000000000000000000000000000000000000000000000000000000000000000000000000000000000000000000000000000000000000000000000000000040000000000000000000000000000000000000000000000000000000000000006ca381c8e2b6e3f86a5ce9ac318f54c9c7bcd6eff368df0296000000000000000000000000000000000000000000000000016345785d8a0000c35fc43ae078961bfc34ffb6c2148571b6f879204b271679b4b3caa26696c9322f1e7507f2ffb19166c631ec675bd694e6218fe300000000000000000000000000000000000000000000000000000000000000000000000000000000000000000000000000000000000000000000000000000000000000000000000000000000",
          "blockHash": "0x7a4ce93b8921fb986b016c0919c6c44832aa9d10b467a6ac413fdab840b4b9f1",
          "blockNumber": "0x797fe3",
          "blockTimestamp": "0x67dfc5ec",
          "transactionHash": "0xa6944da52cdaa2fd1a242365f98c4eef5157ef2d2fd57ffdfbc205a0d3c2b723",
          "transactionIndex": "0x81",
          "logIndex": "0xb7",
          "removed": false
        },
        {
          "address": "0xafdf5cb097d6fb2eb8b1ffbab180e667458e18f4",
          "topics": [
            "0xb2eaee515cc7d94b49db955e993b31ccae9d7bb52b87482a554ffca325f4bffa",
            "0x000000000000000000000000081eca2c5143e499d231997dfd019216a17586ea",
            "0x000000000000000000000000a7448df61f9d387f1f3b8d1f3464d5b17e740b03",
            "0x0000000000000000000000000000000000000000000000000000000000049310"
          ],
          "data": "0x0000000000000000000000000000000000000000000000000000000000000000000000000000000000000000000000000000000000000000000000000000006600000000000000000000000000000000000000000000000000000000000f424000000000000000000000000000000000000000000000000000000000000000a0c81d1c4cd48dace610ac09f5117513f9c1388240b9b334a5dd698e8a40fc7cba00000000000000000000000000000000000000000000000000000000000001c48431f5c100000000000000000000000030e9b6b0d161cbd5ff8cf904ff4fa43ce66ac346000000000000000000000000b6e3f86a5ce9ac318f54c9c7bcd6eff368df02960000000000000000000000007af0b379525d80691d9176896da00390cc51f7a600000000000000000000000066e1e28a6e6bd3a4c30a53c964e65ada11cf9eb8000000000000000000000000000000000000000000000000016345785d8a000000000000000000000000000000000000000000000000000000000000000000c000000000000000000000000000000000000000000000000000000000000000e000000000000000000000000000000000000000000000000000000000000000000000000000000000000000000000000000000000000000000000000000000040000000000000000000000000000000000000000000000000000000000000006ca381c8e2b6e3f86a5ce9ac318f54c9c7bcd6eff368df0296000000000000000000000000000000000000000000000000016345785d8a0000c35fc43ae078961bfc34ffb6c2148571b6f879204b271679b4b3caa26696c9322f1e7507f2ffb19166c631ec675bd694e6218fe3000000000000000000000000000000000000000000000000000000000000000000000000000000000000000000000000",
          "blockHash": "0x7a4ce93b8921fb986b016c0919c6c44832aa9d10b467a6ac413fdab840b4b9f1",
          "blockNumber": "0x797fe3",
          "blockTimestamp": "0x67dfc5ec",
          "transactionHash": "0xa6944da52cdaa2fd1a242365f98c4eef5157ef2d2fd57ffdfbc205a0d3c2b723",
          "transactionIndex": "0x81",
          "logIndex": "0xb8",
          "removed": false
        },
        {
          "address": "0x081eca2c5143e499d231997dfd019216a17586ea",
          "topics": [
            "0x31cd3b976e4d654022bf95c68a2ce53f1d5d94afabe0454d2832208eeb40af25",
            "0x00000000000000000000000030e9b6b0d161cbd5ff8cf904ff4fa43ce66ac346",
            "0x000000000000000000000000b6e3f86a5ce9ac318f54c9c7bcd6eff368df0296",
            "0x0000000000000000000000007af0b379525d80691d9176896da00390cc51f7a6"
          ],
          "data": "0x00000000000000000000000066e1e28a6e6bd3a4c30a53c964e65ada11cf9eb8000000000000000000000000000000000000000000000000016345785d8a00000000000000000000000000000000000000000000000000000000000000000060000000000000000000000000000000000000000000000000000000000000006ca381c8e2b6e3f86a5ce9ac318f54c9c7bcd6eff368df0296000000000000000000000000000000000000000000000000016345785d8a0000c35fc43ae078961bfc34ffb6c2148571b6f879204b271679b4b3caa26696c9322f1e7507f2ffb19166c631ec675bd694e6218fe30000000000000000000000000000000000000000",
          "blockHash": "0x7a4ce93b8921fb986b016c0919c6c44832aa9d10b467a6ac413fdab840b4b9f1",
          "blockNumber": "0x797fe3",
          "blockTimestamp": "0x67dfc5ec",
          "transactionHash": "0xa6944da52cdaa2fd1a242365f98c4eef5157ef2d2fd57ffdfbc205a0d3c2b723",
          "transactionIndex": "0x81",
          "logIndex": "0xb9",
          "removed": false
        },
        {
          "address": "0x7af0b379525d80691d9176896da00390cc51f7a6",
          "topics": [
            "0x3448bbc2203c608599ad448eeb1007cea04b788ac631f9f558e8dd01a3c27b3d",
            "0x4b271679b4b3caa26696c9322f1e7507f2ffb19166c631ec675bd694e6218fe3"
          ],
          "data": "0x0000000000000000000000000000000000000000000000000000000000000020000000000000000000000000c35fc43ae078961bfc34ffb6c2148571b6f879200000000000000000000000000000000000000000000000000000000000aa36a700000000000000000000000000000000000000000000000000000000ffffffff0000000000000000000000000000000000000000000000000000000067e117604b271679b4b3caa26696c9322f1e7507f2ffb19166c631ec675bd694e6218fe3000000000000000000000000000000000000000000000000000000000000010000000000000000000000000000000000000000000000000000000000000001a000000000000000000000000000000000000000000000000000000000000002400000000000000000000000000000000000000000000000000000000000000001000000000000000000000000b6e3f86a5ce9ac318f54c9c7bcd6eff368df0296000000000000000000000000000000000000000000000000016345785d8a000000000000000000000000000066e1e28a6e6bd3a4c30a53c964e65ada11cf9eb80000000000000000000000000000000000000000000000000000000000049310000000000000000000000000000000000000000000000000000000000000000100000000000000000000000030e9b6b0d161cbd5ff8cf904ff4fa43ce66ac346000000000000000000000000000000000000000000000000016345785d8a000000000000000000000000000000000000000000000000000000000000000000000000000000000000000000000000000000000000000000000000000000aa36a700000000000000000000000000000000000000000000000000000000000000010000000000000000000000000000000000000000000000000000000000000020000000000000000000000000000000000000000000000000000000000004931000000000000000000000000066e1e28a6e6bd3a4c30a53c964e65ada11cf9eb8000000000000000000000000000000000000000000000000000000000000006000000000000000000000000000000000000000000000000000000000000001c00000000000000000000000000000000000000000000000000000000000000020000000000000000000000000c35fc43ae078961bfc34ffb6c2148571b6f87920000000000000000000000000c35fc43ae078961bfc34ffb6c2148571b6f8792000000000000000000000000030e9b6b0d161cbd5ff8cf904ff4fa43ce66ac346000000000000000000000000b6e3f86a5ce9ac318f54c9c7bcd6eff368df0296000000000000000000000000000000000000000000000000016345785d8a0000000000000000000000000000000000000000000000000000016345785d8a000000000000000000000000000000000000000000000000000000000000000011ec0000000000000000000000000000000000000000000000000000000000aa36a7000000000000000000000000000000000000000000000000000000000004931000000000000000000000000066e1e28a6e6bd3a4c30a53c964e65ada11cf9eb80000000000000000000000000000000000000000000000000000000067e1176000000000000000000000000000000000000000000000000000000000000001800000000000000000000000000000000000000000000000000000000000000000",
          "blockHash": "0x7a4ce93b8921fb986b016c0919c6c44832aa9d10b467a6ac413fdab840b4b9f1",
          "blockNumber": "0x797fe3",
          "blockTimestamp": "0x67dfc5ec",
          "transactionHash": "0xa6944da52cdaa2fd1a242365f98c4eef5157ef2d2fd57ffdfbc205a0d3c2b723",
          "transactionIndex": "0x81",
          "logIndex": "0xba",
          "removed": false
        }
      ],
      "logsBloom": "0x00000000000000000000000000001000000000000000010000000801000180000000000000000000000001000000080000000000000030000000000000200004010000000000001080000008080000000020000000000040000000000000100100000000000000002000004002000000010000000000004010000010200000000000000000000010080000000800420000002000000000000000000000000000020001000001000800000000500000000000000000000000000000000000000000000002000004000000009002020000000000000000000100000000000000001010012000008000000000000020200000080000008000000201400000000000",
      "type": "0x2",
      "transactionHash": "0xa6944da52cdaa2fd1a242365f98c4eef5157ef2d2fd57ffdfbc205a0d3c2b723",
      "transactionIndex": "0x81",
      "blockHash": "0x7a4ce93b8921fb986b016c0919c6c44832aa9d10b467a6ac413fdab840b4b9f1",
      "blockNumber": "0x797fe3",
      "gasUsed": "0xa16cf",
      "effectiveGasPrice": "0x40524c",
      "from": "0xc35fc43ae078961bfc34ffb6c2148571b6f87920",
      "to": "0x7af0b379525d80691d9176896da00390cc51f7a6",
      "contractAddress": null
    }
  ],
  "libraries": [],
  "pending": [],
  "returns": {},
  "timestamp": 1742718445,
  "chain": 11155111,
  "commit": "ba6e287"
}